:0A0000000C9457010C9400000C94BE
:10000A0000000C9400000C9400000C94BB020C94A9
:10001A0000000C94C0020C9400000C9400000C9494
:10002A0000000C9400000C9400000C9400000C9446
:10003A0000000C9400000C9400000C9400000C9436
:10004A0000000C9400000C9400000C94DC010C9449
:10005A0000000C9400000C9400000C94DC020C9438
:10006A0042030C9400000C9400000C9400000C94C1
:10007A0000000C9400000C9400000C9400000C94F6
:10008A00000006000000000000002044656D6F209B
:10009A002D2050726F6772616D002044697374611C
:1000AA006E636520696E20434D004C4546543A20E4
:1000BA0031004C4546543A203000205249474854B2
:1000CA003A2031002052494748543A203000464CE1
:1000DA004546543A203100464C4546543A203000B1
:1000EA004652494748543A31004652494748543AD9
:1000FA0030002020202020454E434F4445522020E6
:10010A003E3E003C3C202020454E434F4445522071
:10011A00202020004C3A0020523A004C4546543ADE
:10012A000052494748543A004D4C4546543A20310A
:10013A00004D4C4546543A2030004D5249474854E8
:10014A003A31004D52494748543A30002020583A33
:10015A0000593A0053697A653A0044495354414E6A
:10016A005A2053454E534F52004D4F544F52454E0D
:10017A00004C494348542053454E534F52004C4972
:10018A004E49454E2053454E534F52005749492038
:10019A0043414D00556C747261736F6E696300540C
:1001AA00455354202D2050524F4752414D4D000087
:1001BA0001002D4E414E00494E46000080C0080005
:1001CA0004008C0010000005940010001005A40023
:1001DA0008002005B40008002805BC000A00300504
:1001EA00C4000A003A05CE0009004405D8000900F7
:1001FA004D05E10009005605EA0009005F05F30014
:10020A0011006805FC00110079050D0103008A053B
:10021A001E0104008D052101060091052501070034
:10022A0097052B0108009E05B4000800A605BC002E
:10023A000A00AE05C4000A00B805CE000900C205CE
:10024A0032010900CB053B010900D405440109002C
:10025A00DD054D010200E6051F010500E80556010E
:10026A000300ED055B010600F0055E010F00F605CF
:10027A0064010800050673010D000D067B010E00DE
:10028A001A0688010800280696010B0030069E010E
:10029A0010003B06A9010100A006BA010200A4064B
:1002AA00C6010000F894EE27ECBBF1E0F5BFE5BF0C
:1002BA00E0936C008DE0A2E0BB27ED938A95E9F705
:1002CA0080E090E1A0E0B1E0ED930197E9F7E8EC76
:1002DA00F1E085919591009761F0A591B59105900E
:1002EA001590BF01F00105900D920197E1F7FB010E
:1002FA00F0CF8BBFEFEFEDBFE0E1EEBFC0E0D5E09E
:10030A000C94EC04EAEAEABBEAE0E7BBE2E0E1BB10
:10031A00E0E0E2B9E0E2E0936100A0E10E94BF05FB
:10032A000895E0E0E0936A00E1E1EABFE0E5E9BFB1
:10033A00E0E0E8BF78940895E0E0E0BFE3BFE4E6D8
:10034A00E2BFE0E1E1BFE0E0EFBDEEBDEDBDECBD37
:10035A00E7BDE6BDEBBDEABDE9BDE8BDE0937900C6
:10036A00E0937800E5BDE4BDE3BDE0938B00EBECE0
:10037A00E0938A00E0E0E0938900E0938800E0934C
:10038A008100E0938000E1E6E0938700E8EAE093E9
:10039A008600E0E0E0938500E0938400E093830028
:1003AA00E0938200E7BFE0E3E0937D0008958A933B
:1003BA00AA93BA93EA93FA93EFB7EA93E0915906AC
:1003CA00ABE4B6E0F0E0EE0FFF1FAE0FBF1FE4B1E3
:1003DA00F5B1ED93FC93A0915906AF5FA09359062E
:1003EA00A73018F0E0E0E0935906E0915906E05C86
:1003FA00E7B985E38A95F1F7369AE991EFBFF99162
:10040A00E991B991A99189911895E0E4E7B9EFECDE
:10041A00E6B9E0E0E0BD0895AA930E945E06A0EB6B
:10042A000E949206A9810E949206A8810E949206C1
:10043A000E946D06AAE0B0E00E94AA060C946C0520
:10044A00E0E3EA93A1E0E8DFE0E3EA93A8E0E4DF8F
:10045A00E6E0EA93A0E9E0DFE8E0EA93A0ECDCDF7B
:10046A00EAE1EA93A0E4D8DFE3E3EA93A3E3D4DF83
:10047A00A4E6A9C20E94CB0700E010E00E945E0633
:10048A00A0EB0E949206A6E30E9492060E946D06C5
:10049A00A1E0B0E00E94AA060E945E06A1EB0E94BB
:1004AA00920600E010E00F30E0E01E078CF4A2E7AD
:1004BA00B6E00E94F305FF93EF93A1E00E9477064E
:1004CA00AF91BF91F0E0ED93FC930F5F1F4FEBCF1D
:1004DA00A0E00E947706A0E9B6E0F0E0ED93FC9375
:1004EA000E946D0600E010E00430E0E01E07D4F53B
:1004FA000E94F9050E94FF05E073F0700E949907B7
:10050A009F01F801AAE5B6E0EE0FFF1FEA0FFB1FF5
:10051A00BF010E94F90531960E9409060E94F90559
:10052A000E94FF05E07CF0700E949D079F01A2E6F1
:10053A00B6E00E94F305BF010E94F90532960E94B7
:10054A000906AAE6B6E00E94F305BF010E94F90572
:10055A000E94FF05EF70F070DB01ED93FC930F5FD3
:10056A001F4FC2CF0E94D007249608950E941706F3
:10057A00A2E9B6E004C00E941706A4E9B6E0ED912C
:10058A00FD913196FE93EE93E991EFBFF991E991CE
:10059A00B991A9911895E0E0E0939206E093930649
:1005AA00E0E0F0E0E0939406F093950608950A924D
:1005BA001A926A937A938A939A93AA93BA93EA932A
:1005CA00FA93EFB7EA93E0918000E0939E06E091F8
:1005DA008100E0939F060F9B0EC0E0919E06F0916A
:1005EA009F06E0939606F0939706E0918A00EF7BC8
:1005FA00E0938A0035C0E0919E06F0919F06E09351
:10060A009806F0939906E0918A00E064E0938A00E4
:10061A00A0919806B0919906E0919606F0919706F6
:10062A00AE1BBF0BE4E0F0E00E94AC07E0939A0631
:10063A00F0939B06E0919A06F0919B06662777272E
:10064A000E941A07DF01CB01EDECFCEC60E572E4D5
:10065A000E944807ACE9B6E00E94E306ED93FC93DA
:10066A00E991EFBFF991E991B991A991999189918C
:10067A00799169911990099018958A93EA93EFB73D
:10068A00C19A85E38A95F1F7C198EFBFE9918991FB
:10069A001895EFEFFFEFE0939C06F0939D060895FF
:1006AA000E9459062FDE48DE3CDECADEAEDE73DF6C
:1006BA00F0DF0895A0E0B5E00E941E061CD1CC9997
:1006CA0010C00E9426060E946E05D2011196179745
:1006DA001CF04424552403C0F20131962F016624EC
:1006EA007724ECCF60970E946E05E0919C06F0910A
:1006FA009D060E942A06A0E1B5E00E9430060E94EB
:10070A003706A2E3B0E00E94AA06609608950E9406
:10071A006E05B09903C0A0E2B5E002C0A8E2B5E058
:10072A000E949D05B69903C0A0E3B5E002C0AAE302
:10073A00B5E00E949D050E943A06B29903C0A4E45E
:10074A00B5E002C0ADE4B5E00E949D05B49903C0CE
:10075A00A6E5B5E002C0AFE5B5E00E949D050895A3
:10076A002A97D99ADB9A0E946E05082C092839F42F
:10077A00A8E6B5E00E949D05DF98DD9806C0A9E7C6
:10078A00B5E00E949D05DF9ADD9A0E943A06AAE822
:10079A00B5E00E949D05E0919206F09193060E94B1
:1007AA002A060E943706ADE8B5E00E949D05E09151
:1007BA009406F09195060E942A060E943706CE9961
:1007CA0007C00E942606F4010E94A7078E2E9924CC
:1007DA0090C02A970E94CB07E0915106F0915206E9
:1007EA008F01E0914D06F0914E069F010E946E0521
:1007FA00A1E9B5E00E949D053A932A930E943F061B
:10080A000E943006A7E9B5E00E949D051A930A9353
:10081A000E943F060E949D050E94D0072E960895C9
:10082A000E946E05009903C0AEE9B5E002C0A6EACF
:10083A00B5E00E949D05069903C0AEEAB5E002C084
:10084A00A8EBB5E00E949D050E943A06029903C0F2
:10085A00A2ECB5E002C0ABECB5E00E949D0504999C
:10086A0003C0A4EDB5E002C0ADEDB5E00E949D0560
:10087A0008952A970E946E05FDDDBA92AA92DE01BA
:10088A0012960E94F0040E943706A6EEB5E00E9476
:10089A009D05F501AAE5B6E00E944606A8EEB5E078
:1008AA000E944D06A2E6B6E0F5010E944606ADEEAC
:1008BA00B5E00E944D06AAE6B6E0F5010E9446069A
:1008CA000E943A06A0EFB5E00E944D06A2E3B0E00E
:1008DA000E94AA06CE990DC00E942606E3E0F0E027
:1008EA00AE16BF061CF4F501319602C0E0E0F0E056
:1008FA005F012A960895D998DB98F201309761F43E
:10090A00062C072839F4A6EFB5E00E941E06E1E09E
:10091A00F0E03F01FCDE56C0E130A0E0FA0761F4E6
:10092A00062C072839F4A5E0B6E00E941E06E1E08D
:10093A00F0E03F0115DF46C0E230A0E0FA0761F4BB
:10094A00062C072839F4ADE0B6E00E941E06E1E065
:10095A00F0E03F013EDF36C0E330A0E0FA0761F481
:10096A00062C072839F4AAE1B6E00E941E06E1E047
:10097A00F0E03F0155DF26C0E430A0E0FA0761F459
:10098A00062C072839F4A8E2B6E00E941E06E1E028
:10099A00F0E03F016EDF16C0E530A0E0FA0761F42F
:1009AA00062C072839F4A0E3B6E00E941E06E1E00F
:1009BA00F0E03F0197DE06C00E946E05ABE3B6E0A9
:1009CA000E949D05A2E3B0E00E94AA06089568DE8F
:1009DA0071DEFFCFFFCFBA93AA93A991B991E9919A
:1009EA00F99130962AF4E095F09531966DE26D937F
:1009FA00E89480E197E20DD088EE93E00AD084E68D
:100A0A00992707D08AE005D06E2F10D066276C93FD
:100A1A0008956627E817F90720F06395E81BF90B94
:100A2A00C9F7662311F416F008956894605D6D9312
:100A3A000895FFE0FA95F1F70895A4B3AF70A4BB47
:100A4A00A99AA898F6DFAA9AF4DFA3B3AA98F1DFC5
:100A5A00AA9AEFDFAA98A7FDF5CF0895A07FAB2B3E
:100A6A00A5BBAA9A0E941E05AA980E941E0508956F
:100A7A00AA93A998A4B3A76FA4BBB5B3BF70A88162
:100A8A00EDDFA881A295EADFA99A0C94F105AA9A4A
:100A9A000E941E05E3B3AA980E941E05E07F0895EE
:100AAA000E941E05F4DFAE2FF2DFA998E295EA2B29
:100ABA000895AA930E942205E881F0E0EC55F94FC7
:100ACA00E081A981AE0F0E943D05D980C880229697
:100ADA0008950E942205A2E00E943D050E94220577
:100AEA00ACE00E943D050E942205A1E00E943D055E
:100AFA00E0E0CE2EDE2E0895AA93EF93FF93A8810D
:100B0A006894AA3029F0E894E091A806DE1630F03D
:100B1A00C394E0E0EA93AC2DCCDF36F0D3948DDFBA
:100B2A00A89AA8810E943D05FF91EF910C94F105C6
:100B3A00BA93AA931A93A981BA81ED91A983BA8328
:100B4A001E2FE03019F0A12FD7DFF5CF1881239699
:100B5A000895AA27BB271197F1F70895AA93A99890
:100B6A00A4B3A76FA4BBB5B3BF70A8810E94330515
:100B7A00A99A32C0AA93AA98A898E881E093A806ED
:100B8A00E058E093A606E881E054E093A7060E94A5
:100B9A0050060E9450060E945006DBDFA0E2DEDF0C
:100BAA00D8DFA8E20E945506A4E00E945506A5E8EF
:100BBA000E945506A4B3AF70A4BBA99A0E9455051A
:100BCA00E53011F0E0E008C00E942205A6E00E948C
:100BDA003D050E946E05E1E021960895F801EE0FA9
:100BEA00FF1FEA0FFB1F0895F801A3E0B0E00E947F
:100BFA00B40708953396A2E7B6E0EE0FFF1FAE0FD3
:100C0A00BF1F0E94C7070895A2E7B6E0EE0FFF1FB5
:100C1A00AE0FBF1F0E94C707E20FF31FDB01ED9360
:100C2A00FC930895AA93BA93EA93FA93EFB7EA93D7
:100C3A0008950E949D05A8EEB3E00E94AA060C94AE
:100C4A006E05AAEFB0E00C94AA06FA93EA93DE01C5
:100C5A0012960C94F0040E949D05E0E0EA93A1E04C
:100C6A000C945E05DE010C949D05E0E0EA93A1E098
:100C7A000C945E05DE0116960E94F004DE011496BD
:100C8A000895EE0FFF1FAE0FBF1F0E94C707DDCFEB
:100C9A000E949D05E7CF0E94AE05A0E30C94B30520
:100CAA000E943D050C94AE05C398C598BB9ABD98A1
:100CBA0015C0BD98BB98EE270000B59B0895B39B5D
:100CCA00089504D0BD9A02D0BB9AE1E06BE107C057
:100CDA00BD9ABB9A03D0BB98F9DFBD9865E36A95C4
:100CEA00F1F7089578E0BB98F1DFB39BFECFEEDF12
:100CFA008894B5990894BB9AF1DFEE1F7A9599F713
:100D0A007A2F772311F4BD9801C0BD9ADFDFBB9813
:100D1A00E5DFBB9ADBDFBD98D9CF78E0AA0F10F4E4
:100D2A00BD9801C0BD9ADADFBB98D0DFB39BFECF76
:100D3A00CDDFBB9A7A9591F7BD98C8DFBB98CEDF15
:100D4A00E1E0B599EE27BB9AC1CF109639F080EA57
:100D5A009FE00197F1F7A8951197C9F708955523D0
:100D6A0042F4503811F4E0FF04C03196691F791F2C
:100D7A006BF050E8572711F45F9373C05F3F31F06F
:100D8A00660F000C57956795752F08955F9300209D
:100D9A000AF073C06CC050E8192E1522880F991FEB
:100DAA009527550F879550E8072E0522660F771F5E
:100DBA007527550F67950895689401C0E8945F9365
:100DCA00F2DF703818F07F3F08F44BC056E1571B2A
:100DDA00AAF4519558300EF4593030F0EFEFFFEF86
:100DEA006FEF7FE777F91AC077275523B9F0EE0F2F
:100DFA00FF1F661F771F5A95D1F710C07727583003
:100E0A0028F0EF2FF62F672F5850F9CF552331F0DE
:100E1A0076956795F795E7955A95D1F700200AF4E4
:100E2A007BD05F910895689401C0E8943097604040
:100E3A007040B1F0002426F0772312F400946CD0AD
:100E4A00172E7EE1112032F07A95EE0FFF1F661FF2
:100E5A00111CF9CFEF2FF62F612D5F938ADF5F9177
:100E6A000895EE27FF27662777275F910895EFEF0A
:100E7A00FFEF6FE77FEF5F910895EFEFFFEF6FE707
:100E8A007FE75F9108955F9386DF703821F4112020
:100E9A000AF4EDCFF2CF903809F4E3CF0124089495
:100EAA00970B1BF4D4F30020F3CF792F1F932F93C2
:100EBA003F934F931124112722273327442755277D
:100ECA0090E2AE17BF078607410730F0AE1BBF0B93
:100EDA00860B410B089401C08894551F221F331FAB
:100EEA00111CAA1FBB1F881F441F9A9551F7F901AD
:100EFA00612D4F913F912F911F91662332F0550F2B
:100F0A00EE1FFF1F661F7A9543F229DF5F9108954E
:100F1A00F195E195F0400895F09560957095E19509
:100F2A00FF4F6F4F7F4F0895EE0FFF1FEE0FFF1F0A
:100F3A00EE0FFF1FEE0FFF1F08956F2F660F660B50
:100F4A00762F0895EF2BE1E009F0E0E00895FA9F8B
:100F5A00F02DEB9FF00DEA9FE02DF10D089504D0DE
:100F6A00F6DF0EF4D5DF0895E894F7FF02C0D0DF6C
:100F7A006894B7FF06C0A095B095119600F803943F
:100F8A0000FA0895ED91FC91119708953A932A93E6
:100F9A001A930A9308953B812A8119810881089539
:00000001FF
